{
  "contractName": "Bar",
  "abi": [
    {
      "inputs": [
        {
          "internalType": "address",
          "name": "_admin",
          "type": "address"
        }
      ],
      "stateMutability": "nonpayable",
      "type": "constructor"
    },
    {
      "anonymous": false,
      "inputs": [
        {
          "indexed": true,
          "internalType": "bytes32",
          "name": "role",
          "type": "bytes32"
        },
        {
          "indexed": true,
          "internalType": "bytes32",
          "name": "previousAdminRole",
          "type": "bytes32"
        },
        {
          "indexed": true,
          "internalType": "bytes32",
          "name": "newAdminRole",
          "type": "bytes32"
        }
      ],
      "name": "RoleAdminChanged",
      "type": "event"
    },
    {
      "anonymous": false,
      "inputs": [
        {
          "indexed": true,
          "internalType": "bytes32",
          "name": "role",
          "type": "bytes32"
        },
        {
          "indexed": true,
          "internalType": "address",
          "name": "account",
          "type": "address"
        },
        {
          "indexed": true,
          "internalType": "address",
          "name": "sender",
          "type": "address"
        }
      ],
      "name": "RoleGranted",
      "type": "event"
    },
    {
      "anonymous": false,
      "inputs": [
        {
          "indexed": true,
          "internalType": "bytes32",
          "name": "role",
          "type": "bytes32"
        },
        {
          "indexed": true,
          "internalType": "address",
          "name": "account",
          "type": "address"
        },
        {
          "indexed": true,
          "internalType": "address",
          "name": "sender",
          "type": "address"
        }
      ],
      "name": "RoleRevoked",
      "type": "event"
    },
    {
      "inputs": [],
      "name": "BARTENDER_ROLE",
      "outputs": [
        {
          "internalType": "bytes32",
          "name": "",
          "type": "bytes32"
        }
      ],
      "stateMutability": "view",
      "type": "function"
    },
    {
      "inputs": [],
      "name": "DEFAULT_ADMIN_ROLE",
      "outputs": [
        {
          "internalType": "bytes32",
          "name": "",
          "type": "bytes32"
        }
      ],
      "stateMutability": "view",
      "type": "function"
    },
    {
      "inputs": [
        {
          "internalType": "bytes32",
          "name": "role",
          "type": "bytes32"
        }
      ],
      "name": "getRoleAdmin",
      "outputs": [
        {
          "internalType": "bytes32",
          "name": "",
          "type": "bytes32"
        }
      ],
      "stateMutability": "view",
      "type": "function"
    },
    {
      "inputs": [
        {
          "internalType": "bytes32",
          "name": "role",
          "type": "bytes32"
        },
        {
          "internalType": "address",
          "name": "account",
          "type": "address"
        }
      ],
      "name": "grantRole",
      "outputs": [],
      "stateMutability": "nonpayable",
      "type": "function"
    },
    {
      "inputs": [
        {
          "internalType": "bytes32",
          "name": "role",
          "type": "bytes32"
        },
        {
          "internalType": "address",
          "name": "account",
          "type": "address"
        }
      ],
      "name": "hasRole",
      "outputs": [
        {
          "internalType": "bool",
          "name": "",
          "type": "bool"
        }
      ],
      "stateMutability": "view",
      "type": "function"
    },
    {
      "inputs": [
        {
          "internalType": "bytes32",
          "name": "role",
          "type": "bytes32"
        },
        {
          "internalType": "address",
          "name": "account",
          "type": "address"
        }
      ],
      "name": "renounceRole",
      "outputs": [],
      "stateMutability": "nonpayable",
      "type": "function"
    },
    {
      "inputs": [
        {
          "internalType": "bytes32",
          "name": "role",
          "type": "bytes32"
        },
        {
          "internalType": "address",
          "name": "account",
          "type": "address"
        }
      ],
      "name": "revokeRole",
      "outputs": [],
      "stateMutability": "nonpayable",
      "type": "function"
    },
    {
      "inputs": [
        {
          "internalType": "bytes4",
          "name": "interfaceId",
          "type": "bytes4"
        }
      ],
      "name": "supportsInterface",
      "outputs": [
        {
          "internalType": "bool",
          "name": "",
          "type": "bool"
        }
      ],
      "stateMutability": "view",
      "type": "function"
    }
  ],
  "bytecode": "0x60806040523480156200001157600080fd5b506040516200120338038062001203833981810160405281019062000037919062000215565b6200004c6000801b826200008560201b60201c565b6200007e7fe76a69736acd64ff6e00bfddfd67a42713610d28f5e93ec79b8b207f2ddc3c64826200008560201b60201c565b506200028f565b6200009782826200009b60201b60201c565b5050565b620000ad82826200018c60201b60201c565b6200018857600160008084815260200190815260200160002060000160008373ffffffffffffffffffffffffffffffffffffffff1673ffffffffffffffffffffffffffffffffffffffff16815260200190815260200160002060006101000a81548160ff0219169083151502179055506200012d620001f660201b60201c565b73ffffffffffffffffffffffffffffffffffffffff168173ffffffffffffffffffffffffffffffffffffffff16837f2f8788117e7eff1d82e926ec794901d17c78024a50270940304540a733656f0d60405160405180910390a45b5050565b600080600084815260200190815260200160002060000160008373ffffffffffffffffffffffffffffffffffffffff1673ffffffffffffffffffffffffffffffffffffffff16815260200190815260200160002060009054906101000a900460ff16905092915050565b600033905090565b6000815190506200020f8162000275565b92915050565b6000602082840312156200022857600080fd5b60006200023884828501620001fe565b91505092915050565b60006200024e8262000255565b9050919050565b600073ffffffffffffffffffffffffffffffffffffffff82169050919050565b620002808162000241565b81146200028c57600080fd5b50565b610f64806200029f6000396000f3fe608060405234801561001057600080fd5b50600436106100885760003560e01c806391d148541161005b57806391d1485414610125578063a217fddf14610155578063d547741f14610173578063e855165d1461018f57610088565b806301ffc9a71461008d578063248a9ca3146100bd5780632f2ff15d146100ed57806336568abe14610109575b600080fd5b6100a760048036038101906100a29190610a1e565b6101ad565b6040516100b49190610b95565b60405180910390f35b6100d760048036038101906100d291906109b9565b610227565b6040516100e49190610bb0565b60405180910390f35b610107600480360381019061010291906109e2565b610246565b005b610123600480360381019061011e91906109e2565b61026f565b005b61013f600480360381019061013a91906109e2565b6102f2565b60405161014c9190610b95565b60405180910390f35b61015d61035c565b60405161016a9190610bb0565b60405180910390f35b61018d600480360381019061018891906109e2565b610363565b005b61019761038c565b6040516101a49190610bb0565b60405180910390f35b60007f7965db0b000000000000000000000000000000000000000000000000000000007bffffffffffffffffffffffffffffffffffffffffffffffffffffffff1916827bffffffffffffffffffffffffffffffffffffffffffffffffffffffff19161480610220575061021f826103b0565b5b9050919050565b6000806000838152602001908152602001600020600101549050919050565b61024f82610227565b6102608161025b61041a565b610422565b61026a83836104bf565b505050565b61027761041a565b73ffffffffffffffffffffffffffffffffffffffff168173ffffffffffffffffffffffffffffffffffffffff16146102e4576040517f08c379a00000000000000000000000000000000000000000000000000000000081526004016102db90610c0d565b60405180910390fd5b6102ee828261059f565b5050565b600080600084815260200190815260200160002060000160008373ffffffffffffffffffffffffffffffffffffffff1673ffffffffffffffffffffffffffffffffffffffff16815260200190815260200160002060009054906101000a900460ff16905092915050565b6000801b81565b61036c82610227565b61037d8161037861041a565b610422565b610387838361059f565b505050565b7fe76a69736acd64ff6e00bfddfd67a42713610d28f5e93ec79b8b207f2ddc3c6481565b60007f01ffc9a7000000000000000000000000000000000000000000000000000000007bffffffffffffffffffffffffffffffffffffffffffffffffffffffff1916827bffffffffffffffffffffffffffffffffffffffffffffffffffffffff1916149050919050565b600033905090565b61042c82826102f2565b6104bb576104518173ffffffffffffffffffffffffffffffffffffffff166014610680565b61045f8360001c6020610680565b604051602001610470929190610b5b565b6040516020818303038152906040526040517f08c379a00000000000000000000000000000000000000000000000000000000081526004016104b29190610bcb565b60405180910390fd5b5050565b6104c982826102f2565b61059b57600160008084815260200190815260200160002060000160008373ffffffffffffffffffffffffffffffffffffffff1673ffffffffffffffffffffffffffffffffffffffff16815260200190815260200160002060006101000a81548160ff02191690831515021790555061054061041a565b73ffffffffffffffffffffffffffffffffffffffff168173ffffffffffffffffffffffffffffffffffffffff16837f2f8788117e7eff1d82e926ec794901d17c78024a50270940304540a733656f0d60405160405180910390a45b5050565b6105a982826102f2565b1561067c57600080600084815260200190815260200160002060000160008373ffffffffffffffffffffffffffffffffffffffff1673ffffffffffffffffffffffffffffffffffffffff16815260200190815260200160002060006101000a81548160ff02191690831515021790555061062161041a565b73ffffffffffffffffffffffffffffffffffffffff168173ffffffffffffffffffffffffffffffffffffffff16837ff6391f5c32d9c69d2a47ea670b442974b53935d1edc7fd64eb21e047a839171b60405160405180910390a45b5050565b6060600060028360026106939190610caa565b61069d9190610c54565b67ffffffffffffffff8111156106dc577f4e487b7100000000000000000000000000000000000000000000000000000000600052604160045260246000fd5b6040519080825280601f01601f19166020018201604052801561070e5781602001600182028036833780820191505090505b5090507f30000000000000000000000000000000000000000000000000000000000000008160008151811061076c577f4e487b7100000000000000000000000000000000000000000000000000000000600052603260045260246000fd5b60200101907effffffffffffffffffffffffffffffffffffffffffffffffffffffffffffff1916908160001a9053507f7800000000000000000000000000000000000000000000000000000000000000816001815181106107f6577f4e487b7100000000000000000000000000000000000000000000000000000000600052603260045260246000fd5b60200101907effffffffffffffffffffffffffffffffffffffffffffffffffffffffffffff1916908160001a905350600060018460026108369190610caa565b6108409190610c54565b90505b600181111561092c577f3031323334353637383961626364656600000000000000000000000000000000600f8616601081106108a8577f4e487b7100000000000000000000000000000000000000000000000000000000600052603260045260246000fd5b1a60f81b8282815181106108e5577f4e487b7100000000000000000000000000000000000000000000000000000000600052603260045260246000fd5b60200101907effffffffffffffffffffffffffffffffffffffffffffffffffffffffffffff1916908160001a905350600485901c94508061092590610db5565b9050610843565b5060008414610970576040517f08c379a000000000000000000000000000000000000000000000000000000000815260040161096790610bed565b60405180910390fd5b8091505092915050565b60008135905061098981610ee9565b92915050565b60008135905061099e81610f00565b92915050565b6000813590506109b381610f17565b92915050565b6000602082840312156109cb57600080fd5b60006109d98482850161098f565b91505092915050565b600080604083850312156109f557600080fd5b6000610a038582860161098f565b9250506020610a148582860161097a565b9150509250929050565b600060208284031215610a3057600080fd5b6000610a3e848285016109a4565b91505092915050565b610a5081610d16565b82525050565b610a5f81610d22565b82525050565b6000610a7082610c2d565b610a7a8185610c38565b9350610a8a818560208601610d82565b610a9381610e0e565b840191505092915050565b6000610aa982610c2d565b610ab38185610c49565b9350610ac3818560208601610d82565b80840191505092915050565b6000610adc602083610c38565b9150610ae782610e1f565b602082019050919050565b6000610aff601783610c49565b9150610b0a82610e48565b601782019050919050565b6000610b22601183610c49565b9150610b2d82610e71565b601182019050919050565b6000610b45602f83610c38565b9150610b5082610e9a565b604082019050919050565b6000610b6682610af2565b9150610b728285610a9e565b9150610b7d82610b15565b9150610b898284610a9e565b91508190509392505050565b6000602082019050610baa6000830184610a47565b92915050565b6000602082019050610bc56000830184610a56565b92915050565b60006020820190508181036000830152610be58184610a65565b905092915050565b60006020820190508181036000830152610c0681610acf565b9050919050565b60006020820190508181036000830152610c2681610b38565b9050919050565b600081519050919050565b600082825260208201905092915050565b600081905092915050565b6000610c5f82610d78565b9150610c6a83610d78565b9250827fffffffffffffffffffffffffffffffffffffffffffffffffffffffffffffffff03821115610c9f57610c9e610ddf565b5b828201905092915050565b6000610cb582610d78565b9150610cc083610d78565b9250817fffffffffffffffffffffffffffffffffffffffffffffffffffffffffffffffff0483118215151615610cf957610cf8610ddf565b5b828202905092915050565b6000610d0f82610d58565b9050919050565b60008115159050919050565b6000819050919050565b60007fffffffff0000000000000000000000000000000000000000000000000000000082169050919050565b600073ffffffffffffffffffffffffffffffffffffffff82169050919050565b6000819050919050565b60005b83811015610da0578082015181840152602081019050610d85565b83811115610daf576000848401525b50505050565b6000610dc082610d78565b91506000821415610dd457610dd3610ddf565b5b600182039050919050565b7f4e487b7100000000000000000000000000000000000000000000000000000000600052601160045260246000fd5b6000601f19601f8301169050919050565b7f537472696e67733a20686578206c656e67746820696e73756666696369656e74600082015250565b7f416363657373436f6e74726f6c3a206163636f756e7420000000000000000000600082015250565b7f206973206d697373696e6720726f6c6520000000000000000000000000000000600082015250565b7f416363657373436f6e74726f6c3a2063616e206f6e6c792072656e6f756e636560008201527f20726f6c657320666f722073656c660000000000000000000000000000000000602082015250565b610ef281610d04565b8114610efd57600080fd5b50565b610f0981610d22565b8114610f1457600080fd5b50565b610f2081610d2c565b8114610f2b57600080fd5b5056fea2646970667358221220e7973c9acb95d5945ca2abcd891de204176752ea801bfcb6ae08e39db687701c64736f6c63430008010033",
  "immutableReferences": {},
  "source": "pragma solidity ^0.8.0;\r\n\r\nimport \"@openzeppelin/contracts/access/AccessControl.sol\";\r\n\r\ncontract Bar is AccessControl {\r\n  bytes32 public constant BARTENDER_ROLE = keccak256(\"bartender\");\r\n\r\n  constructor(address _admin) {\r\n    _setupRole(DEFAULT_ADMIN_ROLE, _admin);\r\n    _setupRole(BARTENDER_ROLE, _admin);\r\n  }\r\n\r\n}\r\n",
  "sourcePath": "C:\\Users\\Timot\\Desktop\\Git\\one\\contracts\\Bar.sol",
  "compiler": {
    "name": "solc",
    "version": "0.8.1+commit.df193b15.Emscripten.clang"
  },
  "schemaVersion": "3.4.3",
  "updatedAt": "2021-10-05T03:21:47.130Z",
  "devdoc": {
    "kind": "dev",
    "methods": {
      "getRoleAdmin(bytes32)": {
        "details": "Returns the admin role that controls `role`. See {grantRole} and {revokeRole}. To change a role's admin, use {_setRoleAdmin}."
      },
      "grantRole(bytes32,address)": {
        "details": "Grants `role` to `account`. If `account` had not been already granted `role`, emits a {RoleGranted} event. Requirements: - the caller must have ``role``'s admin role."
      },
      "hasRole(bytes32,address)": {
        "details": "Returns `true` if `account` has been granted `role`."
      },
      "renounceRole(bytes32,address)": {
        "details": "Revokes `role` from the calling account. Roles are often managed via {grantRole} and {revokeRole}: this function's purpose is to provide a mechanism for accounts to lose their privileges if they are compromised (such as when a trusted device is misplaced). If the calling account had been granted `role`, emits a {RoleRevoked} event. Requirements: - the caller must be `account`."
      },
      "revokeRole(bytes32,address)": {
        "details": "Revokes `role` from `account`. If `account` had been granted `role`, emits a {RoleRevoked} event. Requirements: - the caller must have ``role``'s admin role."
      },
      "supportsInterface(bytes4)": {
        "details": "See {IERC165-supportsInterface}."
      }
    },
    "version": 1
  },
  "userdoc": {
    "kind": "user",
    "methods": {},
    "version": 1
  }
}