{
  "contractName": "Drink",
  "abi": [
    {
      "inputs": [
        {
          "internalType": "address",
          "name": "_admin",
          "type": "address"
        }
      ],
      "stateMutability": "nonpayable",
      "type": "constructor"
    },
    {
      "anonymous": false,
      "inputs": [
        {
          "indexed": true,
          "internalType": "address",
          "name": "owner",
          "type": "address"
        },
        {
          "indexed": true,
          "internalType": "address",
          "name": "approved",
          "type": "address"
        },
        {
          "indexed": true,
          "internalType": "uint256",
          "name": "tokenId",
          "type": "uint256"
        }
      ],
      "name": "Approval",
      "type": "event"
    },
    {
      "anonymous": false,
      "inputs": [
        {
          "indexed": true,
          "internalType": "address",
          "name": "owner",
          "type": "address"
        },
        {
          "indexed": true,
          "internalType": "address",
          "name": "operator",
          "type": "address"
        },
        {
          "indexed": false,
          "internalType": "bool",
          "name": "approved",
          "type": "bool"
        }
      ],
      "name": "ApprovalForAll",
      "type": "event"
    },
    {
      "anonymous": false,
      "inputs": [
        {
          "indexed": true,
          "internalType": "bytes32",
          "name": "role",
          "type": "bytes32"
        },
        {
          "indexed": true,
          "internalType": "bytes32",
          "name": "previousAdminRole",
          "type": "bytes32"
        },
        {
          "indexed": true,
          "internalType": "bytes32",
          "name": "newAdminRole",
          "type": "bytes32"
        }
      ],
      "name": "RoleAdminChanged",
      "type": "event"
    },
    {
      "anonymous": false,
      "inputs": [
        {
          "indexed": true,
          "internalType": "bytes32",
          "name": "role",
          "type": "bytes32"
        },
        {
          "indexed": true,
          "internalType": "address",
          "name": "account",
          "type": "address"
        },
        {
          "indexed": true,
          "internalType": "address",
          "name": "sender",
          "type": "address"
        }
      ],
      "name": "RoleGranted",
      "type": "event"
    },
    {
      "anonymous": false,
      "inputs": [
        {
          "indexed": true,
          "internalType": "bytes32",
          "name": "role",
          "type": "bytes32"
        },
        {
          "indexed": true,
          "internalType": "address",
          "name": "account",
          "type": "address"
        },
        {
          "indexed": true,
          "internalType": "address",
          "name": "sender",
          "type": "address"
        }
      ],
      "name": "RoleRevoked",
      "type": "event"
    },
    {
      "anonymous": false,
      "inputs": [
        {
          "indexed": true,
          "internalType": "address",
          "name": "from",
          "type": "address"
        },
        {
          "indexed": true,
          "internalType": "address",
          "name": "to",
          "type": "address"
        },
        {
          "indexed": true,
          "internalType": "uint256",
          "name": "tokenId",
          "type": "uint256"
        }
      ],
      "name": "Transfer",
      "type": "event"
    },
    {
      "inputs": [],
      "name": "BARTENDER_ROLE",
      "outputs": [
        {
          "internalType": "bytes32",
          "name": "",
          "type": "bytes32"
        }
      ],
      "stateMutability": "view",
      "type": "function",
      "constant": true
    },
    {
      "inputs": [],
      "name": "DEFAULT_ADMIN_ROLE",
      "outputs": [
        {
          "internalType": "bytes32",
          "name": "",
          "type": "bytes32"
        }
      ],
      "stateMutability": "view",
      "type": "function",
      "constant": true
    },
    {
      "inputs": [
        {
          "internalType": "address",
          "name": "to",
          "type": "address"
        },
        {
          "internalType": "uint256",
          "name": "tokenId",
          "type": "uint256"
        }
      ],
      "name": "approve",
      "outputs": [],
      "stateMutability": "nonpayable",
      "type": "function"
    },
    {
      "inputs": [
        {
          "internalType": "address",
          "name": "owner",
          "type": "address"
        }
      ],
      "name": "balanceOf",
      "outputs": [
        {
          "internalType": "uint256",
          "name": "",
          "type": "uint256"
        }
      ],
      "stateMutability": "view",
      "type": "function",
      "constant": true
    },
    {
      "inputs": [
        {
          "internalType": "uint256",
          "name": "tokenId",
          "type": "uint256"
        }
      ],
      "name": "getApproved",
      "outputs": [
        {
          "internalType": "address",
          "name": "",
          "type": "address"
        }
      ],
      "stateMutability": "view",
      "type": "function",
      "constant": true
    },
    {
      "inputs": [
        {
          "internalType": "bytes32",
          "name": "role",
          "type": "bytes32"
        }
      ],
      "name": "getRoleAdmin",
      "outputs": [
        {
          "internalType": "bytes32",
          "name": "",
          "type": "bytes32"
        }
      ],
      "stateMutability": "view",
      "type": "function",
      "constant": true
    },
    {
      "inputs": [
        {
          "internalType": "bytes32",
          "name": "role",
          "type": "bytes32"
        },
        {
          "internalType": "address",
          "name": "account",
          "type": "address"
        }
      ],
      "name": "grantRole",
      "outputs": [],
      "stateMutability": "nonpayable",
      "type": "function"
    },
    {
      "inputs": [
        {
          "internalType": "bytes32",
          "name": "role",
          "type": "bytes32"
        },
        {
          "internalType": "address",
          "name": "account",
          "type": "address"
        }
      ],
      "name": "hasRole",
      "outputs": [
        {
          "internalType": "bool",
          "name": "",
          "type": "bool"
        }
      ],
      "stateMutability": "view",
      "type": "function",
      "constant": true
    },
    {
      "inputs": [
        {
          "internalType": "address",
          "name": "owner",
          "type": "address"
        },
        {
          "internalType": "address",
          "name": "operator",
          "type": "address"
        }
      ],
      "name": "isApprovedForAll",
      "outputs": [
        {
          "internalType": "bool",
          "name": "",
          "type": "bool"
        }
      ],
      "stateMutability": "view",
      "type": "function",
      "constant": true
    },
    {
      "inputs": [],
      "name": "name",
      "outputs": [
        {
          "internalType": "string",
          "name": "",
          "type": "string"
        }
      ],
      "stateMutability": "view",
      "type": "function",
      "constant": true
    },
    {
      "inputs": [
        {
          "internalType": "uint256",
          "name": "tokenId",
          "type": "uint256"
        }
      ],
      "name": "ownerOf",
      "outputs": [
        {
          "internalType": "address",
          "name": "",
          "type": "address"
        }
      ],
      "stateMutability": "view",
      "type": "function",
      "constant": true
    },
    {
      "inputs": [
        {
          "internalType": "bytes32",
          "name": "role",
          "type": "bytes32"
        },
        {
          "internalType": "address",
          "name": "account",
          "type": "address"
        }
      ],
      "name": "renounceRole",
      "outputs": [],
      "stateMutability": "nonpayable",
      "type": "function"
    },
    {
      "inputs": [
        {
          "internalType": "bytes32",
          "name": "role",
          "type": "bytes32"
        },
        {
          "internalType": "address",
          "name": "account",
          "type": "address"
        }
      ],
      "name": "revokeRole",
      "outputs": [],
      "stateMutability": "nonpayable",
      "type": "function"
    },
    {
      "inputs": [
        {
          "internalType": "address",
          "name": "from",
          "type": "address"
        },
        {
          "internalType": "address",
          "name": "to",
          "type": "address"
        },
        {
          "internalType": "uint256",
          "name": "tokenId",
          "type": "uint256"
        }
      ],
      "name": "safeTransferFrom",
      "outputs": [],
      "stateMutability": "nonpayable",
      "type": "function"
    },
    {
      "inputs": [
        {
          "internalType": "address",
          "name": "from",
          "type": "address"
        },
        {
          "internalType": "address",
          "name": "to",
          "type": "address"
        },
        {
          "internalType": "uint256",
          "name": "tokenId",
          "type": "uint256"
        },
        {
          "internalType": "bytes",
          "name": "_data",
          "type": "bytes"
        }
      ],
      "name": "safeTransferFrom",
      "outputs": [],
      "stateMutability": "nonpayable",
      "type": "function"
    },
    {
      "inputs": [
        {
          "internalType": "address",
          "name": "operator",
          "type": "address"
        },
        {
          "internalType": "bool",
          "name": "approved",
          "type": "bool"
        }
      ],
      "name": "setApprovalForAll",
      "outputs": [],
      "stateMutability": "nonpayable",
      "type": "function"
    },
    {
      "inputs": [],
      "name": "symbol",
      "outputs": [
        {
          "internalType": "string",
          "name": "",
          "type": "string"
        }
      ],
      "stateMutability": "view",
      "type": "function",
      "constant": true
    },
    {
      "inputs": [
        {
          "internalType": "uint256",
          "name": "index",
          "type": "uint256"
        }
      ],
      "name": "tokenByIndex",
      "outputs": [
        {
          "internalType": "uint256",
          "name": "",
          "type": "uint256"
        }
      ],
      "stateMutability": "view",
      "type": "function",
      "constant": true
    },
    {
      "inputs": [
        {
          "internalType": "address",
          "name": "owner",
          "type": "address"
        },
        {
          "internalType": "uint256",
          "name": "index",
          "type": "uint256"
        }
      ],
      "name": "tokenOfOwnerByIndex",
      "outputs": [
        {
          "internalType": "uint256",
          "name": "",
          "type": "uint256"
        }
      ],
      "stateMutability": "view",
      "type": "function",
      "constant": true
    },
    {
      "inputs": [],
      "name": "totalSupply",
      "outputs": [
        {
          "internalType": "uint256",
          "name": "",
          "type": "uint256"
        }
      ],
      "stateMutability": "view",
      "type": "function",
      "constant": true
    },
    {
      "inputs": [
        {
          "internalType": "address",
          "name": "from",
          "type": "address"
        },
        {
          "internalType": "address",
          "name": "to",
          "type": "address"
        },
        {
          "internalType": "uint256",
          "name": "tokenId",
          "type": "uint256"
        }
      ],
      "name": "transferFrom",
      "outputs": [],
      "stateMutability": "nonpayable",
      "type": "function"
    },
    {
      "inputs": [
        {
          "internalType": "string",
          "name": "_tokenURI",
          "type": "string"
        }
      ],
      "name": "makeDrink",
      "outputs": [
        {
          "internalType": "uint256",
          "name": "",
          "type": "uint256"
        }
      ],
      "stateMutability": "nonpayable",
      "type": "function"
    },
    {
      "inputs": [
        {
          "internalType": "uint256",
          "name": "tokenId",
          "type": "uint256"
        }
      ],
      "name": "burn",
      "outputs": [],
      "stateMutability": "nonpayable",
      "type": "function"
    },
    {
      "inputs": [
        {
          "internalType": "bytes4",
          "name": "interfaceId",
          "type": "bytes4"
        }
      ],
      "name": "supportsInterface",
      "outputs": [
        {
          "internalType": "bool",
          "name": "",
          "type": "bool"
        }
      ],
      "stateMutability": "view",
      "type": "function",
      "constant": true
    },
    {
      "inputs": [
        {
          "internalType": "uint256",
          "name": "tokenId",
          "type": "uint256"
        }
      ],
      "name": "tokenURI",
      "outputs": [
        {
          "internalType": "string",
          "name": "",
          "type": "string"
        }
      ],
      "stateMutability": "view",
      "type": "function",
      "constant": true
    }
  ],
  "bytecode": "0x60806040523480156200001157600080fd5b506040516200489138038062004891833981810160405281019062000037919062000367565b6040518060400160405280600581526020017f4472696e6b0000000000000000000000000000000000000000000000000000008152506040518060400160405280600581526020017f4452494e4b00000000000000000000000000000000000000000000000000000081525082620000b96000801b826200012760201b60201c565b620000eb7fe76a69736acd64ff6e00bfddfd67a42713610d28f5e93ec79b8b207f2ddc3c64826200012760201b60201c565b50816001908051906020019062000104929190620002a0565b5080600290805190602001906200011d929190620002a0565b5050505062000446565b6200013982826200013d60201b60201c565b5050565b6200014f82826200022e60201b60201c565b6200022a57600160008084815260200190815260200160002060000160008373ffffffffffffffffffffffffffffffffffffffff1673ffffffffffffffffffffffffffffffffffffffff16815260200190815260200160002060006101000a81548160ff021916908315150217905550620001cf6200029860201b60201c565b73ffffffffffffffffffffffffffffffffffffffff168173ffffffffffffffffffffffffffffffffffffffff16837f2f8788117e7eff1d82e926ec794901d17c78024a50270940304540a733656f0d60405160405180910390a45b5050565b600080600084815260200190815260200160002060000160008373ffffffffffffffffffffffffffffffffffffffff1673ffffffffffffffffffffffffffffffffffffffff16815260200190815260200160002060009054906101000a900460ff16905092915050565b600033905090565b828054620002ae90620003c7565b90600052602060002090601f016020900481019282620002d257600085556200031e565b82601f10620002ed57805160ff19168380011785556200031e565b828001600101855582156200031e579182015b828111156200031d57825182559160200191906001019062000300565b5b5090506200032d919062000331565b5090565b5b808211156200034c57600081600090555060010162000332565b5090565b60008151905062000361816200042c565b92915050565b6000602082840312156200037a57600080fd5b60006200038a8482850162000350565b91505092915050565b6000620003a082620003a7565b9050919050565b600073ffffffffffffffffffffffffffffffffffffffff82169050919050565b60006002820490506001821680620003e057607f821691505b60208210811415620003f757620003f6620003fd565b5b50919050565b7f4e487b7100000000000000000000000000000000000000000000000000000000600052602260045260246000fd5b620004378162000393565b81146200044357600080fd5b50565b61443b80620004566000396000f3fe608060405234801561001057600080fd5b50600436106101735760003560e01c80634cebb12a116100de578063a217fddf11610097578063c87b56dd11610071578063c87b56dd14610480578063d547741f146104b0578063e855165d146104cc578063e985e9c5146104ea57610173565b8063a217fddf1461042a578063a22cb46514610448578063b88d4fde1461046457610173565b80634cebb12a1461031c5780634f6ccce71461034c5780636352211e1461037c57806370a08231146103ac57806391d14854146103dc57806395d89b411461040c57610173565b8063248a9ca311610130578063248a9ca31461024c5780632f2ff15d1461027c5780632f745c591461029857806336568abe146102c857806342842e0e146102e457806342966c681461030057610173565b806301ffc9a71461017857806306fdde03146101a8578063081812fc146101c6578063095ea7b3146101f657806318160ddd1461021257806323b872dd14610230575b600080fd5b610192600480360381019061018d9190613052565b61051a565b60405161019f91906135d7565b60405180910390f35b6101b0610664565b6040516101bd919061360d565b60405180910390f35b6101e060048036038101906101db91906130e5565b6106f6565b6040516101ed9190613570565b60405180910390f35b610210600480360381019061020b9190612fb1565b61077b565b005b61021a610893565b60405161022791906138cf565b60405180910390f35b61024a60048036038101906102459190612eab565b6108a0565b005b61026660048036038101906102619190612fed565b610900565b60405161027391906135f2565b60405180910390f35b61029660048036038101906102919190613016565b61091f565b005b6102b260048036038101906102ad9190612fb1565b610948565b6040516102bf91906138cf565b60405180910390f35b6102e260048036038101906102dd9190613016565b6109ed565b005b6102fe60048036038101906102f99190612eab565b610a70565b005b61031a600480360381019061031591906130e5565b610a90565b005b610336600480360381019061033191906130a4565b610b1f565b60405161034391906138cf565b60405180910390f35b610366600480360381019061036191906130e5565b610b89565b60405161037391906138cf565b60405180910390f35b610396600480360381019061039191906130e5565b610c20565b6040516103a39190613570565b60405180910390f35b6103c660048036038101906103c19190612e46565b610cd2565b6040516103d391906138cf565b60405180910390f35b6103f660048036038101906103f19190613016565b610d8a565b60405161040391906135d7565b60405180910390f35b610414610df4565b604051610421919061360d565b60405180910390f35b610432610e86565b60405161043f91906135f2565b60405180910390f35b610462600480360381019061045d9190612f75565b610e8d565b005b61047e60048036038101906104799190612efa565b61100e565b005b61049a600480360381019061049591906130e5565b611070565b6040516104a7919061360d565b60405180910390f35b6104ca60048036038101906104c59190613016565b611082565b005b6104d46110ab565b6040516104e191906135f2565b60405180910390f35b61050460048036038101906104ff9190612e6f565b6110cf565b60405161051191906135d7565b60405180910390f35b60007f80ac58cd000000000000000000000000000000000000000000000000000000007bffffffffffffffffffffffffffffffffffffffffffffffffffffffff1916827bffffffffffffffffffffffffffffffffffffffffffffffffffffffff191614806105e557507f5b5e139f000000000000000000000000000000000000000000000000000000007bffffffffffffffffffffffffffffffffffffffffffffffffffffffff1916827bffffffffffffffffffffffffffffffffffffffffffffffffffffffff1916145b8061064d57507f7965db0b000000000000000000000000000000000000000000000000000000007bffffffffffffffffffffffffffffffffffffffffffffffffffffffff1916827bffffffffffffffffffffffffffffffffffffffffffffffffffffffff1916145b8061065d575061065c82611163565b5b9050919050565b60606001805461067390613bb3565b80601f016020809104026020016040519081016040528092919081815260200182805461069f90613bb3565b80156106ec5780601f106106c1576101008083540402835291602001916106ec565b820191906000526020600020905b8154815290600101906020018083116106cf57829003601f168201915b5050505050905090565b6000610701826111dd565b610740576040517f08c379a0000000000000000000000000000000000000000000000000000000008152600401610737906137cf565b60405180910390fd5b6005600083815260200190815260200160002060009054906101000a900473ffffffffffffffffffffffffffffffffffffffff169050919050565b600061078682610c20565b90508073ffffffffffffffffffffffffffffffffffffffff168373ffffffffffffffffffffffffffffffffffffffff1614156107f7576040517f08c379a00000000000000000000000000000000000000000000000000000000081526004016107ee9061382f565b60405180910390fd5b8073ffffffffffffffffffffffffffffffffffffffff16610816611249565b73ffffffffffffffffffffffffffffffffffffffff16148061084557506108448161083f611249565b6110cf565b5b610884576040517f08c379a000000000000000000000000000000000000000000000000000000000815260040161087b9061370f565b60405180910390fd5b61088e8383611251565b505050565b6000600980549050905090565b6108b16108ab611249565b8261130a565b6108f0576040517f08c379a00000000000000000000000000000000000000000000000000000000081526004016108e79061384f565b60405180910390fd5b6108fb8383836113e8565b505050565b6000806000838152602001908152602001600020600101549050919050565b61092882610900565b61093981610934611249565b611644565b61094383836116e1565b505050565b600061095383610cd2565b8210610994576040517f08c379a000000000000000000000000000000000000000000000000000000000815260040161098b9061364f565b60405180910390fd5b600760008473ffffffffffffffffffffffffffffffffffffffff1673ffffffffffffffffffffffffffffffffffffffff168152602001908152602001600020600083815260200190815260200160002054905092915050565b6109f5611249565b73ffffffffffffffffffffffffffffffffffffffff168173ffffffffffffffffffffffffffffffffffffffff1614610a62576040517f08c379a0000000000000000000000000000000000000000000000000000000008152600401610a59906138af565b60405180910390fd5b610a6c82826117c1565b5050565b610a8b8383836040518060200160405280600081525061100e565b505050565b7fe76a69736acd64ff6e00bfddfd67a42713610d28f5e93ec79b8b207f2ddc3c64610ac281610abd611249565b611644565b610ad3610acd611249565b8361130a565b610b12576040517f08c379a0000000000000000000000000000000000000000000000000000000008152600401610b099061388f565b60405180910390fd5b610b1b826118a2565b5050565b60007fe76a69736acd64ff6e00bfddfd67a42713610d28f5e93ec79b8b207f2ddc3c64610b5381610b4e611249565b611644565b610b5d600c6118ae565b6000610b69600c6118c4565b9050610b7533826118d2565b610b7f81856118f0565b8092505050919050565b6000610b93610893565b8210610bd4576040517f08c379a0000000000000000000000000000000000000000000000000000000008152600401610bcb9061386f565b60405180910390fd5b60098281548110610c0e577f4e487b7100000000000000000000000000000000000000000000000000000000600052603260045260246000fd5b90600052602060002001549050919050565b6000806003600084815260200190815260200160002060009054906101000a900473ffffffffffffffffffffffffffffffffffffffff169050600073ffffffffffffffffffffffffffffffffffffffff168173ffffffffffffffffffffffffffffffffffffffff161415610cc9576040517f08c379a0000000000000000000000000000000000000000000000000000000008152600401610cc09061374f565b60405180910390fd5b80915050919050565b60008073ffffffffffffffffffffffffffffffffffffffff168273ffffffffffffffffffffffffffffffffffffffff161415610d43576040517f08c379a0000000000000000000000000000000000000000000000000000000008152600401610d3a9061372f565b60405180910390fd5b600460008373ffffffffffffffffffffffffffffffffffffffff1673ffffffffffffffffffffffffffffffffffffffff168152602001908152602001600020549050919050565b600080600084815260200190815260200160002060000160008373ffffffffffffffffffffffffffffffffffffffff1673ffffffffffffffffffffffffffffffffffffffff16815260200190815260200160002060009054906101000a900460ff16905092915050565b606060028054610e0390613bb3565b80601f0160208091040260200160405190810160405280929190818152602001828054610e2f90613bb3565b8015610e7c5780601f10610e5157610100808354040283529160200191610e7c565b820191906000526020600020905b815481529060010190602001808311610e5f57829003601f168201915b5050505050905090565b6000801b81565b610e95611249565b73ffffffffffffffffffffffffffffffffffffffff168273ffffffffffffffffffffffffffffffffffffffff161415610f03576040517f08c379a0000000000000000000000000000000000000000000000000000000008152600401610efa906136cf565b60405180910390fd5b8060066000610f10611249565b73ffffffffffffffffffffffffffffffffffffffff1673ffffffffffffffffffffffffffffffffffffffff16815260200190815260200160002060008473ffffffffffffffffffffffffffffffffffffffff1673ffffffffffffffffffffffffffffffffffffffff16815260200190815260200160002060006101000a81548160ff0219169083151502179055508173ffffffffffffffffffffffffffffffffffffffff16610fbd611249565b73ffffffffffffffffffffffffffffffffffffffff167f17307eab39ab6107e8899845ad3d59bd9653f200f220920489ca2b5937696c318360405161100291906135d7565b60405180910390a35050565b61101f611019611249565b8361130a565b61105e576040517f08c379a00000000000000000000000000000000000000000000000000000000081526004016110559061384f565b60405180910390fd5b61106a84848484611964565b50505050565b606061107b826119c0565b9050919050565b61108b82610900565b61109c81611097611249565b611644565b6110a683836117c1565b505050565b7fe76a69736acd64ff6e00bfddfd67a42713610d28f5e93ec79b8b207f2ddc3c6481565b6000600660008473ffffffffffffffffffffffffffffffffffffffff1673ffffffffffffffffffffffffffffffffffffffff16815260200190815260200160002060008373ffffffffffffffffffffffffffffffffffffffff1673ffffffffffffffffffffffffffffffffffffffff16815260200190815260200160002060009054906101000a900460ff16905092915050565b60007f780e9d63000000000000000000000000000000000000000000000000000000007bffffffffffffffffffffffffffffffffffffffffffffffffffffffff1916827bffffffffffffffffffffffffffffffffffffffffffffffffffffffff191614806111d657506111d582611b12565b5b9050919050565b60008073ffffffffffffffffffffffffffffffffffffffff166003600084815260200190815260200160002060009054906101000a900473ffffffffffffffffffffffffffffffffffffffff1673ffffffffffffffffffffffffffffffffffffffff1614159050919050565b600033905090565b816005600083815260200190815260200160002060006101000a81548173ffffffffffffffffffffffffffffffffffffffff021916908373ffffffffffffffffffffffffffffffffffffffff160217905550808273ffffffffffffffffffffffffffffffffffffffff166112c483610c20565b73ffffffffffffffffffffffffffffffffffffffff167f8c5be1e5ebec7d5bd14f71427d1e84f3dd0314c0f7b2291e5b200ac8c7c3b92560405160405180910390a45050565b6000611315826111dd565b611354576040517f08c379a000000000000000000000000000000000000000000000000000000000815260040161134b906136ef565b60405180910390fd5b600061135f83610c20565b90508073ffffffffffffffffffffffffffffffffffffffff168473ffffffffffffffffffffffffffffffffffffffff1614806113ce57508373ffffffffffffffffffffffffffffffffffffffff166113b6846106f6565b73ffffffffffffffffffffffffffffffffffffffff16145b806113df57506113de81856110cf565b5b91505092915050565b8273ffffffffffffffffffffffffffffffffffffffff1661140882610c20565b73ffffffffffffffffffffffffffffffffffffffff161461145e576040517f08c379a0000000000000000000000000000000000000000000000000000000008152600401611455906137ef565b60405180910390fd5b600073ffffffffffffffffffffffffffffffffffffffff168273ffffffffffffffffffffffffffffffffffffffff1614156114ce576040517f08c379a00000000000000000000000000000000000000000000000000000000081526004016114c5906136af565b60405180910390fd5b6114d9838383611bf4565b6114e4600082611251565b6001600460008573ffffffffffffffffffffffffffffffffffffffff1673ffffffffffffffffffffffffffffffffffffffff16815260200190815260200160002060008282546115349190613a95565b925050819055506001600460008473ffffffffffffffffffffffffffffffffffffffff1673ffffffffffffffffffffffffffffffffffffffff168152602001908152602001600020600082825461158b91906139b4565b92505081905550816003600083815260200190815260200160002060006101000a81548173ffffffffffffffffffffffffffffffffffffffff021916908373ffffffffffffffffffffffffffffffffffffffff160217905550808273ffffffffffffffffffffffffffffffffffffffff168473ffffffffffffffffffffffffffffffffffffffff167fddf252ad1be2c89b69c2b068fc378daa952ba7f163c4a11628f55a4df523b3ef60405160405180910390a4505050565b61164e8282610d8a565b6116dd576116738173ffffffffffffffffffffffffffffffffffffffff166014611c04565b6116818360001c6020611c04565b604051602001611692929190613536565b6040516020818303038152906040526040517f08c379a00000000000000000000000000000000000000000000000000000000081526004016116d4919061360d565b60405180910390fd5b5050565b6116eb8282610d8a565b6117bd57600160008084815260200190815260200160002060000160008373ffffffffffffffffffffffffffffffffffffffff1673ffffffffffffffffffffffffffffffffffffffff16815260200190815260200160002060006101000a81548160ff021916908315150217905550611762611249565b73ffffffffffffffffffffffffffffffffffffffff168173ffffffffffffffffffffffffffffffffffffffff16837f2f8788117e7eff1d82e926ec794901d17c78024a50270940304540a733656f0d60405160405180910390a45b5050565b6117cb8282610d8a565b1561189e57600080600084815260200190815260200160002060000160008373ffffffffffffffffffffffffffffffffffffffff1673ffffffffffffffffffffffffffffffffffffffff16815260200190815260200160002060006101000a81548160ff021916908315150217905550611843611249565b73ffffffffffffffffffffffffffffffffffffffff168173ffffffffffffffffffffffffffffffffffffffff16837ff6391f5c32d9c69d2a47ea670b442974b53935d1edc7fd64eb21e047a839171b60405160405180910390a45b5050565b6118ab81611efe565b50565b6001816000016000828254019250508190555050565b600081600001549050919050565b6118ec828260405180602001604052806000815250611f51565b5050565b6118f9826111dd565b611938576040517f08c379a000000000000000000000000000000000000000000000000000000000815260040161192f9061376f565b60405180910390fd5b80600b6000848152602001908152602001600020908051906020019061195f929190612c15565b505050565b61196f8484846113e8565b61197b84848484611fac565b6119ba576040517f08c379a00000000000000000000000000000000000000000000000000000000081526004016119b19061366f565b60405180910390fd5b50505050565b60606119cb826111dd565b611a0a576040517f08c379a0000000000000000000000000000000000000000000000000000000008152600401611a01906137af565b60405180910390fd5b6000600b60008481526020019081526020016000208054611a2a90613bb3565b80601f0160208091040260200160405190810160405280929190818152602001828054611a5690613bb3565b8015611aa35780601f10611a7857610100808354040283529160200191611aa3565b820191906000526020600020905b815481529060010190602001808311611a8657829003601f168201915b505050505090506000611ab4612143565b9050600081511415611aca578192505050611b0d565b600082511115611aff578082604051602001611ae7929190613512565b60405160208183030381529060405292505050611b0d565b611b088461215a565b925050505b919050565b60007f80ac58cd000000000000000000000000000000000000000000000000000000007bffffffffffffffffffffffffffffffffffffffffffffffffffffffff1916827bffffffffffffffffffffffffffffffffffffffffffffffffffffffff19161480611bdd57507f5b5e139f000000000000000000000000000000000000000000000000000000007bffffffffffffffffffffffffffffffffffffffffffffffffffffffff1916827bffffffffffffffffffffffffffffffffffffffffffffffffffffffff1916145b80611bed5750611bec82612201565b5b9050919050565b611bff83838361227b565b505050565b606060006002836002611c179190613a3b565b611c2191906139b4565b67ffffffffffffffff811115611c60577f4e487b7100000000000000000000000000000000000000000000000000000000600052604160045260246000fd5b6040519080825280601f01601f191660200182016040528015611c925781602001600182028036833780820191505090505b5090507f300000000000000000000000000000000000000000000000000000000000000081600081518110611cf0577f4e487b7100000000000000000000000000000000000000000000000000000000600052603260045260246000fd5b60200101907effffffffffffffffffffffffffffffffffffffffffffffffffffffffffffff1916908160001a9053507f780000000000000000000000000000000000000000000000000000000000000081600181518110611d7a577f4e487b7100000000000000000000000000000000000000000000000000000000600052603260045260246000fd5b60200101907effffffffffffffffffffffffffffffffffffffffffffffffffffffffffffff1916908160001a90535060006001846002611dba9190613a3b565b611dc491906139b4565b90505b6001811115611eb0577f3031323334353637383961626364656600000000000000000000000000000000600f861660108110611e2c577f4e487b7100000000000000000000000000000000000000000000000000000000600052603260045260246000fd5b1a60f81b828281518110611e69577f4e487b7100000000000000000000000000000000000000000000000000000000600052603260045260246000fd5b60200101907effffffffffffffffffffffffffffffffffffffffffffffffffffffffffffff1916908160001a905350600485901c945080611ea990613b89565b9050611dc7565b5060008414611ef4576040517f08c379a0000000000000000000000000000000000000000000000000000000008152600401611eeb9061362f565b60405180910390fd5b8091505092915050565b611f078161238f565b6000600b60008381526020019081526020016000208054611f2790613bb3565b905014611f4e57600b60008281526020019081526020016000206000611f4d9190612c9b565b5b50565b611f5b83836124a0565b611f686000848484611fac565b611fa7576040517f08c379a0000000000000000000000000000000000000000000000000000000008152600401611f9e9061366f565b60405180910390fd5b505050565b6000611fcd8473ffffffffffffffffffffffffffffffffffffffff1661266e565b15612136578373ffffffffffffffffffffffffffffffffffffffff1663150b7a02611ff6611249565b8786866040518563ffffffff1660e01b8152600401612018949392919061358b565b602060405180830381600087803b15801561203257600080fd5b505af192505050801561206357506040513d601f19601f82011682018060405250810190612060919061307b565b60015b6120e6573d8060008114612093576040519150601f19603f3d011682016040523d82523d6000602084013e612098565b606091505b506000815114156120de576040517f08c379a00000000000000000000000000000000000000000000000000000000081526004016120d59061366f565b60405180910390fd5b805181602001fd5b63150b7a0260e01b7bffffffffffffffffffffffffffffffffffffffffffffffffffffffff1916817bffffffffffffffffffffffffffffffffffffffffffffffffffffffff19161491505061213b565b600190505b949350505050565b606060405180602001604052806000815250905090565b6060612165826111dd565b6121a4576040517f08c379a000000000000000000000000000000000000000000000000000000000815260040161219b9061380f565b60405180910390fd5b60006121ae612143565b905060008151116121ce57604051806020016040528060008152506121f9565b806121d884612681565b6040516020016121e9929190613512565b6040516020818303038152906040525b915050919050565b60007f7965db0b000000000000000000000000000000000000000000000000000000007bffffffffffffffffffffffffffffffffffffffffffffffffffffffff1916827bffffffffffffffffffffffffffffffffffffffffffffffffffffffff1916148061227457506122738261282e565b5b9050919050565b612286838383612898565b600073ffffffffffffffffffffffffffffffffffffffff168373ffffffffffffffffffffffffffffffffffffffff1614156122c9576122c48161289d565b612308565b8173ffffffffffffffffffffffffffffffffffffffff168373ffffffffffffffffffffffffffffffffffffffff16146123075761230683826128e6565b5b5b600073ffffffffffffffffffffffffffffffffffffffff168273ffffffffffffffffffffffffffffffffffffffff16141561234b5761234681612a53565b61238a565b8273ffffffffffffffffffffffffffffffffffffffff168273ffffffffffffffffffffffffffffffffffffffff1614612389576123888282612b96565b5b5b505050565b600061239a82610c20565b90506123a881600084611bf4565b6123b3600083611251565b6001600460008373ffffffffffffffffffffffffffffffffffffffff1673ffffffffffffffffffffffffffffffffffffffff16815260200190815260200160002060008282546124039190613a95565b925050819055506003600083815260200190815260200160002060006101000a81549073ffffffffffffffffffffffffffffffffffffffff021916905581600073ffffffffffffffffffffffffffffffffffffffff168273ffffffffffffffffffffffffffffffffffffffff167fddf252ad1be2c89b69c2b068fc378daa952ba7f163c4a11628f55a4df523b3ef60405160405180910390a45050565b600073ffffffffffffffffffffffffffffffffffffffff168273ffffffffffffffffffffffffffffffffffffffff161415612510576040517f08c379a00000000000000000000000000000000000000000000000000000000081526004016125079061378f565b60405180910390fd5b612519816111dd565b15612559576040517f08c379a00000000000000000000000000000000000000000000000000000000081526004016125509061368f565b60405180910390fd5b61256560008383611bf4565b6001600460008473ffffffffffffffffffffffffffffffffffffffff1673ffffffffffffffffffffffffffffffffffffffff16815260200190815260200160002060008282546125b591906139b4565b92505081905550816003600083815260200190815260200160002060006101000a81548173ffffffffffffffffffffffffffffffffffffffff021916908373ffffffffffffffffffffffffffffffffffffffff160217905550808273ffffffffffffffffffffffffffffffffffffffff16600073ffffffffffffffffffffffffffffffffffffffff167fddf252ad1be2c89b69c2b068fc378daa952ba7f163c4a11628f55a4df523b3ef60405160405180910390a45050565b600080823b905060008111915050919050565b606060008214156126c9576040518060400160405280600181526020017f30000000000000000000000000000000000000000000000000000000000000008152509050612829565b600082905060005b600082146126fb5780806126e490613c16565b915050600a826126f49190613a0a565b91506126d1565b60008167ffffffffffffffff81111561273d577f4e487b7100000000000000000000000000000000000000000000000000000000600052604160045260246000fd5b6040519080825280601f01601f19166020018201604052801561276f5781602001600182028036833780820191505090505b5090505b60008514612822576001826127889190613a95565b9150600a856127979190613c5f565b60306127a391906139b4565b60f81b8183815181106127df577f4e487b7100000000000000000000000000000000000000000000000000000000600052603260045260246000fd5b60200101907effffffffffffffffffffffffffffffffffffffffffffffffffffffffffffff1916908160001a905350600a8561281b9190613a0a565b9450612773565b8093505050505b919050565b60007f01ffc9a7000000000000000000000000000000000000000000000000000000007bffffffffffffffffffffffffffffffffffffffffffffffffffffffff1916827bffffffffffffffffffffffffffffffffffffffffffffffffffffffff1916149050919050565b505050565b600980549050600a600083815260200190815260200160002081905550600981908060018154018082558091505060019003906000526020600020016000909190919091505550565b600060016128f384610cd2565b6128fd9190613a95565b90506000600860008481526020019081526020016000205490508181146129e2576000600760008673ffffffffffffffffffffffffffffffffffffffff1673ffffffffffffffffffffffffffffffffffffffff168152602001908152602001600020600084815260200190815260200160002054905080600760008773ffffffffffffffffffffffffffffffffffffffff1673ffffffffffffffffffffffffffffffffffffffff168152602001908152602001600020600084815260200190815260200160002081905550816008600083815260200190815260200160002081905550505b6008600084815260200190815260200160002060009055600760008573ffffffffffffffffffffffffffffffffffffffff1673ffffffffffffffffffffffffffffffffffffffff16815260200190815260200160002060008381526020019081526020016000206000905550505050565b60006001600980549050612a679190613a95565b90506000600a6000848152602001908152602001600020549050600060098381548110612abd577f4e487b7100000000000000000000000000000000000000000000000000000000600052603260045260246000fd5b906000526020600020015490508060098381548110612b05577f4e487b7100000000000000000000000000000000000000000000000000000000600052603260045260246000fd5b906000526020600020018190555081600a600083815260200190815260200160002081905550600a6000858152602001908152602001600020600090556009805480612b7a577f4e487b7100000000000000000000000000000000000000000000000000000000600052603160045260246000fd5b6001900381819060005260206000200160009055905550505050565b6000612ba183610cd2565b905081600760008573ffffffffffffffffffffffffffffffffffffffff1673ffffffffffffffffffffffffffffffffffffffff168152602001908152602001600020600083815260200190815260200160002081905550806008600084815260200190815260200160002081905550505050565b828054612c2190613bb3565b90600052602060002090601f016020900481019282612c435760008555612c8a565b82601f10612c5c57805160ff1916838001178555612c8a565b82800160010185558215612c8a579182015b82811115612c89578251825591602001919060010190612c6e565b5b509050612c979190612cdb565b5090565b508054612ca790613bb3565b6000825580601f10612cb95750612cd8565b601f016020900490600052602060002090810190612cd79190612cdb565b5b50565b5b80821115612cf4576000816000905550600101612cdc565b5090565b6000612d0b612d068461390f565b6138ea565b905082815260208101848484011115612d2357600080fd5b612d2e848285613b47565b509392505050565b6000612d49612d4484613940565b6138ea565b905082815260208101848484011115612d6157600080fd5b612d6c848285613b47565b509392505050565b600081359050612d8381614392565b92915050565b600081359050612d98816143a9565b92915050565b600081359050612dad816143c0565b92915050565b600081359050612dc2816143d7565b92915050565b600081519050612dd7816143d7565b92915050565b600082601f830112612dee57600080fd5b8135612dfe848260208601612cf8565b91505092915050565b600082601f830112612e1857600080fd5b8135612e28848260208601612d36565b91505092915050565b600081359050612e40816143ee565b92915050565b600060208284031215612e5857600080fd5b6000612e6684828501612d74565b91505092915050565b60008060408385031215612e8257600080fd5b6000612e9085828601612d74565b9250506020612ea185828601612d74565b9150509250929050565b600080600060608486031215612ec057600080fd5b6000612ece86828701612d74565b9350506020612edf86828701612d74565b9250506040612ef086828701612e31565b9150509250925092565b60008060008060808587031215612f1057600080fd5b6000612f1e87828801612d74565b9450506020612f2f87828801612d74565b9350506040612f4087828801612e31565b925050606085013567ffffffffffffffff811115612f5d57600080fd5b612f6987828801612ddd565b91505092959194509250565b60008060408385031215612f8857600080fd5b6000612f9685828601612d74565b9250506020612fa785828601612d89565b9150509250929050565b60008060408385031215612fc457600080fd5b6000612fd285828601612d74565b9250506020612fe385828601612e31565b9150509250929050565b600060208284031215612fff57600080fd5b600061300d84828501612d9e565b91505092915050565b6000806040838503121561302957600080fd5b600061303785828601612d9e565b925050602061304885828601612d74565b9150509250929050565b60006020828403121561306457600080fd5b600061307284828501612db3565b91505092915050565b60006020828403121561308d57600080fd5b600061309b84828501612dc8565b91505092915050565b6000602082840312156130b657600080fd5b600082013567ffffffffffffffff8111156130d057600080fd5b6130dc84828501612e07565b91505092915050565b6000602082840312156130f757600080fd5b600061310584828501612e31565b91505092915050565b61311781613ac9565b82525050565b61312681613adb565b82525050565b61313581613ae7565b82525050565b600061314682613971565b6131508185613987565b9350613160818560208601613b56565b61316981613d4c565b840191505092915050565b600061317f8261397c565b6131898185613998565b9350613199818560208601613b56565b6131a281613d4c565b840191505092915050565b60006131b88261397c565b6131c281856139a9565b93506131d2818560208601613b56565b80840191505092915050565b60006131eb602083613998565b91506131f682613d5d565b602082019050919050565b600061320e602b83613998565b915061321982613d86565b604082019050919050565b6000613231603283613998565b915061323c82613dd5565b604082019050919050565b6000613254601c83613998565b915061325f82613e24565b602082019050919050565b6000613277602483613998565b915061328282613e4d565b604082019050919050565b600061329a601983613998565b91506132a582613e9c565b602082019050919050565b60006132bd602c83613998565b91506132c882613ec5565b604082019050919050565b60006132e0603883613998565b91506132eb82613f14565b604082019050919050565b6000613303602a83613998565b915061330e82613f63565b604082019050919050565b6000613326602983613998565b915061333182613fb2565b604082019050919050565b6000613349602e83613998565b915061335482614001565b604082019050919050565b600061336c602083613998565b915061337782614050565b602082019050919050565b600061338f603183613998565b915061339a82614079565b604082019050919050565b60006133b2602c83613998565b91506133bd826140c8565b604082019050919050565b60006133d5602983613998565b91506133e082614117565b604082019050919050565b60006133f8602f83613998565b915061340382614166565b604082019050919050565b600061341b602183613998565b9150613426826141b5565b604082019050919050565b600061343e603183613998565b915061344982614204565b604082019050919050565b6000613461602c83613998565b915061346c82614253565b604082019050919050565b60006134846017836139a9565b915061348f826142a2565b601782019050919050565b60006134a7603083613998565b91506134b2826142cb565b604082019050919050565b60006134ca6011836139a9565b91506134d58261431a565b601182019050919050565b60006134ed602f83613998565b91506134f882614343565b604082019050919050565b61350c81613b3d565b82525050565b600061351e82856131ad565b915061352a82846131ad565b91508190509392505050565b600061354182613477565b915061354d82856131ad565b9150613558826134bd565b915061356482846131ad565b91508190509392505050565b6000602082019050613585600083018461310e565b92915050565b60006080820190506135a0600083018761310e565b6135ad602083018661310e565b6135ba6040830185613503565b81810360608301526135cc818461313b565b905095945050505050565b60006020820190506135ec600083018461311d565b92915050565b6000602082019050613607600083018461312c565b92915050565b600060208201905081810360008301526136278184613174565b905092915050565b60006020820190508181036000830152613648816131de565b9050919050565b6000602082019050818103600083015261366881613201565b9050919050565b6000602082019050818103600083015261368881613224565b9050919050565b600060208201905081810360008301526136a881613247565b9050919050565b600060208201905081810360008301526136c88161326a565b9050919050565b600060208201905081810360008301526136e88161328d565b9050919050565b60006020820190508181036000830152613708816132b0565b9050919050565b60006020820190508181036000830152613728816132d3565b9050919050565b60006020820190508181036000830152613748816132f6565b9050919050565b6000602082019050818103600083015261376881613319565b9050919050565b600060208201905081810360008301526137888161333c565b9050919050565b600060208201905081810360008301526137a88161335f565b9050919050565b600060208201905081810360008301526137c881613382565b9050919050565b600060208201905081810360008301526137e8816133a5565b9050919050565b60006020820190508181036000830152613808816133c8565b9050919050565b60006020820190508181036000830152613828816133eb565b9050919050565b600060208201905081810360008301526138488161340e565b9050919050565b6000602082019050818103600083015261386881613431565b9050919050565b6000602082019050818103600083015261388881613454565b9050919050565b600060208201905081810360008301526138a88161349a565b9050919050565b600060208201905081810360008301526138c8816134e0565b9050919050565b60006020820190506138e46000830184613503565b92915050565b60006138f4613905565b90506139008282613be5565b919050565b6000604051905090565b600067ffffffffffffffff82111561392a57613929613d1d565b5b61393382613d4c565b9050602081019050919050565b600067ffffffffffffffff82111561395b5761395a613d1d565b5b61396482613d4c565b9050602081019050919050565b600081519050919050565b600081519050919050565b600082825260208201905092915050565b600082825260208201905092915050565b600081905092915050565b60006139bf82613b3d565b91506139ca83613b3d565b9250827fffffffffffffffffffffffffffffffffffffffffffffffffffffffffffffffff038211156139ff576139fe613c90565b5b828201905092915050565b6000613a1582613b3d565b9150613a2083613b3d565b925082613a3057613a2f613cbf565b5b828204905092915050565b6000613a4682613b3d565b9150613a5183613b3d565b9250817fffffffffffffffffffffffffffffffffffffffffffffffffffffffffffffffff0483118215151615613a8a57613a89613c90565b5b828202905092915050565b6000613aa082613b3d565b9150613aab83613b3d565b925082821015613abe57613abd613c90565b5b828203905092915050565b6000613ad482613b1d565b9050919050565b60008115159050919050565b6000819050919050565b60007fffffffff0000000000000000000000000000000000000000000000000000000082169050919050565b600073ffffffffffffffffffffffffffffffffffffffff82169050919050565b6000819050919050565b82818337600083830152505050565b60005b83811015613b74578082015181840152602081019050613b59565b83811115613b83576000848401525b50505050565b6000613b9482613b3d565b91506000821415613ba857613ba7613c90565b5b600182039050919050565b60006002820490506001821680613bcb57607f821691505b60208210811415613bdf57613bde613cee565b5b50919050565b613bee82613d4c565b810181811067ffffffffffffffff82111715613c0d57613c0c613d1d565b5b80604052505050565b6000613c2182613b3d565b91507fffffffffffffffffffffffffffffffffffffffffffffffffffffffffffffffff821415613c5457613c53613c90565b5b600182019050919050565b6000613c6a82613b3d565b9150613c7583613b3d565b925082613c8557613c84613cbf565b5b828206905092915050565b7f4e487b7100000000000000000000000000000000000000000000000000000000600052601160045260246000fd5b7f4e487b7100000000000000000000000000000000000000000000000000000000600052601260045260246000fd5b7f4e487b7100000000000000000000000000000000000000000000000000000000600052602260045260246000fd5b7f4e487b7100000000000000000000000000000000000000000000000000000000600052604160045260246000fd5b6000601f19601f8301169050919050565b7f537472696e67733a20686578206c656e67746820696e73756666696369656e74600082015250565b7f455243373231456e756d657261626c653a206f776e657220696e646578206f7560008201527f74206f6620626f756e6473000000000000000000000000000000000000000000602082015250565b7f4552433732313a207472616e7366657220746f206e6f6e20455243373231526560008201527f63656976657220696d706c656d656e7465720000000000000000000000000000602082015250565b7f4552433732313a20746f6b656e20616c7265616479206d696e74656400000000600082015250565b7f4552433732313a207472616e7366657220746f20746865207a65726f2061646460008201527f7265737300000000000000000000000000000000000000000000000000000000602082015250565b7f4552433732313a20617070726f766520746f2063616c6c657200000000000000600082015250565b7f4552433732313a206f70657261746f7220717565727920666f72206e6f6e657860008201527f697374656e7420746f6b656e0000000000000000000000000000000000000000602082015250565b7f4552433732313a20617070726f76652063616c6c6572206973206e6f74206f7760008201527f6e6572206e6f7220617070726f76656420666f7220616c6c0000000000000000602082015250565b7f4552433732313a2062616c616e636520717565727920666f7220746865207a6560008201527f726f206164647265737300000000000000000000000000000000000000000000602082015250565b7f4552433732313a206f776e657220717565727920666f72206e6f6e657869737460008201527f656e7420746f6b656e0000000000000000000000000000000000000000000000602082015250565b7f45524337323155524953746f726167653a2055524920736574206f66206e6f6e60008201527f6578697374656e7420746f6b656e000000000000000000000000000000000000602082015250565b7f4552433732313a206d696e7420746f20746865207a65726f2061646472657373600082015250565b7f45524337323155524953746f726167653a2055524920717565727920666f722060008201527f6e6f6e6578697374656e7420746f6b656e000000000000000000000000000000602082015250565b7f4552433732313a20617070726f76656420717565727920666f72206e6f6e657860008201527f697374656e7420746f6b656e0000000000000000000000000000000000000000602082015250565b7f4552433732313a207472616e73666572206f6620746f6b656e2074686174206960008201527f73206e6f74206f776e0000000000000000000000000000000000000000000000602082015250565b7f4552433732314d657461646174613a2055524920717565727920666f72206e6f60008201527f6e6578697374656e7420746f6b656e0000000000000000000000000000000000602082015250565b7f4552433732313a20617070726f76616c20746f2063757272656e74206f776e6560008201527f7200000000000000000000000000000000000000000000000000000000000000602082015250565b7f4552433732313a207472616e736665722063616c6c6572206973206e6f74206f60008201527f776e6572206e6f7220617070726f766564000000000000000000000000000000602082015250565b7f455243373231456e756d657261626c653a20676c6f62616c20696e646578206f60008201527f7574206f6620626f756e64730000000000000000000000000000000000000000602082015250565b7f416363657373436f6e74726f6c3a206163636f756e7420000000000000000000600082015250565b7f4552433732314275726e61626c653a2063616c6c6572206973206e6f74206f7760008201527f6e6572206e6f7220617070726f76656400000000000000000000000000000000602082015250565b7f206973206d697373696e6720726f6c6520000000000000000000000000000000600082015250565b7f416363657373436f6e74726f6c3a2063616e206f6e6c792072656e6f756e636560008201527f20726f6c657320666f722073656c660000000000000000000000000000000000602082015250565b61439b81613ac9565b81146143a657600080fd5b50565b6143b281613adb565b81146143bd57600080fd5b50565b6143c981613ae7565b81146143d457600080fd5b50565b6143e081613af1565b81146143eb57600080fd5b50565b6143f781613b3d565b811461440257600080fd5b5056fea264697066735822122042fe09e6bb55e23c7af6bd0a67d5b1e93ac0a05d5e46593f569681f17ff84ef764736f6c63430008010033",
  "immutableReferences": {},
  "source": "pragma solidity ^0.8.0;\r\n\r\nimport \"@openzeppelin/contracts/token/ERC721/extensions/ERC721URIStorage.sol\";\r\nimport \"@openzeppelin/contracts/token/ERC721/extensions/ERC721Enumerable.sol\";\r\nimport \"@openzeppelin/contracts/utils/Counters.sol\";\r\nimport \"./Bar.sol\";\r\n\r\ncontract Drink is Bar, ERC721, ERC721Enumerable, ERC721URIStorage {\r\n  using Counters for Counters.Counter;\r\n  Counters.Counter private _tokenIds;\r\n\r\n  constructor(address _admin) Bar(_admin) ERC721(\"Drink\", \"DRINK\") {}\r\n\r\n  function makeDrink(string memory _tokenURI) public onlyRole(keccak256(\"bartender\")) returns (uint256) {\r\n    _tokenIds.increment();\r\n    uint256 newTokenId = _tokenIds.current();\r\n    _safeMint(msg.sender, newTokenId);\r\n    _setTokenURI(newTokenId, _tokenURI);\r\n\r\n    return newTokenId;\r\n  }\r\n\r\n  function burn(uint256 tokenId) public virtual onlyRole(keccak256(\"bartender\")) {\r\n    //solhint-disable-next-line max-line-length\r\n    require(_isApprovedOrOwner(_msgSender(), tokenId), \"ERC721Burnable: caller is not owner nor approved\");\r\n    _burn(tokenId);\r\n  }\r\n\r\n  function supportsInterface(bytes4 interfaceId) public view virtual override(ERC721, ERC721Enumerable, AccessControl) returns (bool) {\r\n    return\r\n          interfaceId == type(IERC721).interfaceId ||\r\n          interfaceId == type(IERC721Metadata).interfaceId ||\r\n          interfaceId == type(IAccessControl).interfaceId ||\r\n          super.supportsInterface(interfaceId);\r\n  }\r\n\r\n  function _beforeTokenTransfer(address from, address to, uint256 tokenId) internal override(ERC721, ERC721Enumerable) {\r\n      super._beforeTokenTransfer(from, to, tokenId);\r\n  }\r\n\r\n  function _burn(uint256 tokenId) internal override(ERC721, ERC721URIStorage) {\r\n      super._burn(tokenId);\r\n  }\r\n\r\n  function tokenURI(uint256 tokenId) public view override(ERC721, ERC721URIStorage) returns (string memory) {\r\n      return super.tokenURI(tokenId);\r\n  }\r\n\r\n}\r\n",
  "sourcePath": "C:\\Users\\Timot\\Desktop\\Git\\one\\contracts\\Drink.sol",
  "compiler": {
    "name": "solc",
    "version": "0.8.1+commit.df193b15.Emscripten.clang"
  },
  "schemaVersion": "3.4.3",
  "updatedAt": "2021-10-05T03:23:07.303Z",
  "networkType": "ethereum",
  "devdoc": {
    "kind": "dev",
    "methods": {
      "approve(address,uint256)": {
        "details": "See {IERC721-approve}."
      },
      "balanceOf(address)": {
        "details": "See {IERC721-balanceOf}."
      },
      "getApproved(uint256)": {
        "details": "See {IERC721-getApproved}."
      },
      "getRoleAdmin(bytes32)": {
        "details": "Returns the admin role that controls `role`. See {grantRole} and {revokeRole}. To change a role's admin, use {_setRoleAdmin}."
      },
      "grantRole(bytes32,address)": {
        "details": "Grants `role` to `account`. If `account` had not been already granted `role`, emits a {RoleGranted} event. Requirements: - the caller must have ``role``'s admin role."
      },
      "hasRole(bytes32,address)": {
        "details": "Returns `true` if `account` has been granted `role`."
      },
      "isApprovedForAll(address,address)": {
        "details": "See {IERC721-isApprovedForAll}."
      },
      "name()": {
        "details": "See {IERC721Metadata-name}."
      },
      "ownerOf(uint256)": {
        "details": "See {IERC721-ownerOf}."
      },
      "renounceRole(bytes32,address)": {
        "details": "Revokes `role` from the calling account. Roles are often managed via {grantRole} and {revokeRole}: this function's purpose is to provide a mechanism for accounts to lose their privileges if they are compromised (such as when a trusted device is misplaced). If the calling account had been granted `role`, emits a {RoleRevoked} event. Requirements: - the caller must be `account`."
      },
      "revokeRole(bytes32,address)": {
        "details": "Revokes `role` from `account`. If `account` had been granted `role`, emits a {RoleRevoked} event. Requirements: - the caller must have ``role``'s admin role."
      },
      "safeTransferFrom(address,address,uint256)": {
        "details": "See {IERC721-safeTransferFrom}."
      },
      "safeTransferFrom(address,address,uint256,bytes)": {
        "details": "See {IERC721-safeTransferFrom}."
      },
      "setApprovalForAll(address,bool)": {
        "details": "See {IERC721-setApprovalForAll}."
      },
      "symbol()": {
        "details": "See {IERC721Metadata-symbol}."
      },
      "tokenByIndex(uint256)": {
        "details": "See {IERC721Enumerable-tokenByIndex}."
      },
      "tokenOfOwnerByIndex(address,uint256)": {
        "details": "See {IERC721Enumerable-tokenOfOwnerByIndex}."
      },
      "totalSupply()": {
        "details": "See {IERC721Enumerable-totalSupply}."
      },
      "transferFrom(address,address,uint256)": {
        "details": "See {IERC721-transferFrom}."
      }
    },
    "version": 1
  },
  "userdoc": {
    "kind": "user",
    "methods": {},
    "version": 1
  }
}